:040000006F309016B7
:1000040000000000000000000A0D00000C0D0000BC
:10001400000000006639000000000000000000003D
:10002400663900006639000000000000000000008E
:10003400663900000000000066390000000000007E
:1000440066390000663900006639000000000000CF
:100054006639000066390000663900006639000020
:100064006639000066390000663900006639000010
:100074006639000066390000663900006639000000
:1000840066390000663900006639000066390000F0
:1000940066390000663900006639000066390000E0
:1000A40066390000663900006639000066390000D0
:1000B40066390000D20F000066390000663900007E
:1000C40066390000663900006639000066390000B0
:1000D40066390000663900000E0D000000000000C3
:1000E400000000000000000000000000000000000C
:0C00F40000000000000000000000000000
:10010000397101436EC619A0397141536AC866CA74
:1001100062CC5ECE19A0397101535AD056D252D456
:100120004ED64AD826DA22DC06DE330161408282CE
:1001300041114AC026C222C406C68282B24D410184
:10014000024D924C224CB24B4101024B924A224A40
:10015000B2494101024992442244B24041018280A5
:100160003D432A876373C3029377F700BDEFADE584
:10017000937606FF3D8ABA960CC34CC30CC74CC796
:100180004107E36BD7FE11E28280B306C3408A06C3
:100190009702000096966780A6002307B700A30683
:1001A000B7002306B700A305B7002305B700A304D3
:1001B000B7002304B700A303B7002303B700A302CB
:1001C000B7002302B700A301B7002301B700A300C3
:1001D000B7002300B700828093F5F50F9396850052
:1001E000D58D93960501D58D61B79396270097021B
:1001F000000096968682E78086FA9680C1171D8F4A
:100200003E96E374C3F8A5B79306F00F63E8A60023
:100210001387C1A52A971C233E858280130705F00A
:10022000420741838147E3E9E6FE956793870749E3
:10023000AA9783C707F0CDB781471947B386F50062
:100240009022B306F500850790A2E399E7FE82802D
:10025000EFF21FEE1C2189462A846382D70E63E4E5
:10026000F6008DC3C5BD0D47638BE7262147E39B91
:10027000E7FE0831EF20005D2398A18493578500A5
:100280005CA095A81C31130700036382E7021307E3
:10029000D004E399E7FCA28513850184713F85466C
:1002A0001946938501840D45EF00D03E65BF3C2182
:1002B000054795836383E70495C711476381E70684
:1002C0001547E391E7FA3C313D47E366F7FC1397A6
:1002D00017009387C1A3BA97582154312207369744
:1002E0009AA355BF28315C2022053E9542054181E5
:1002F000213F2387A18448B079BF3C31BD460147E7
:1003000063E8F600139717009387C1A3BA979A235F
:100310002396E184935787005CA058B0ADBF3C3171
:100320005821A207BA97C207C1831307F00FE364ED
:10033000F7F654311387C1A5BA9794A3A9BF1C310E
:100340001147E361F7F215678A0713074745BA9724
:100350009C4382873C213831A207BA97239AF182C5
:100360005C215831A207BA97239CF182E5BD3C215C
:100370003831A207BA97239BF1825C215831A2073A
:10038000BA97239DF182F9BD3C213831A207BA9773
:100390002399F1825C215831A207BA972398F18200
:1003A000D1B53C212547E36FF7EA15678A071307A4
:1003B0008746BA979C4382873C315821A2073E97D3
:1003C00083D6A18303D6618383D5818303D54183FB
:1003D000EF20900DC9B538315421220703D801838D
:1003E000369783D7218383D6A18303D6618383D5B0
:1003F000818303D54183EF20F03C71BD5C215831EE
:100400003031A207BA9703D7018383D6218383D5DE
:10041000818303D54183C207C183EF306006A5BD48
:1004200003D7018383D6218383D5818313063500C7
:1004300003D54183EF308008B9BD38315C212207F4
:100440003E9703D8018383D7218383D6A18303D624
:10045000618383D5818303D5418342074183EF20A4
:10046000F05515BD5C2158313031A207BA9703D73A
:10047000018383D6218383D5818303D54183C2073A
:10048000C183EF30A00101BD03D7018383D621834F
:1004900083D581831306350003D54183EF30C01324
:1004A000DDBB83D6A18303D6618383D5818303D546
:1004B0004183EF20D01AC5B33C314C21A207BE9531
:1004C0001385818AEF20702071BBEF20302859BB43
:1004D000930525001385818AEF20C07A61B3183116
:1004E0000546630EC70215C36308D704E31CF7D69D
:1004F0003C212C315031A207AE974C21A207BE956A
:100500001385418AEF10904879B33C212831A20726
:10051000AA974820A2073E95EF10F00EE9BB3C21B8
:100520002C315031A207AE974C21A207BE951385FE
:10053000418AEF10703585B34C215C312821A2052A
:10054000BE953C302205C2053E954205C1814181E0
:10055000EF10506489B323940184238E0182A38E0B
:100560000182238501848280EFF21FBA83C7A184B0
:10057000638A072405476399E716B7E700E0096730
:1005800023A2E71823A2E7181387C17534273C3745
:10059000A207D58F8607BA97F827FC37238FE18209
:1005A000BA861384C1759389E1831389D1839384B7
:1005B000C1836304071C8347090098206364F70024
:1005C000938707F9998F93F7F70F2383F18463E6F5
:1005D000D70C370B0240239401843697930B000904
:1005E000138AC135938AC19A814513054B0963CE9D
:1005F000EB0EEF30806183C7090013054B09854579
:100600005CC138243C34A207D98F9A073E9A232430
:1006100045019C20BE9A23265501EF30005F9C20A7
:1006200003C70900BA9793F7F70FB3F777039CA0B6
:1006300038243C34A207D98F8607A297F82723874E
:100640000700F837A387070038243C343424A20776
:10065000D98F8507C207C18313F7F70F38A4A18389
:1006600038343CB438243C34A207D98F3D476378F2
:10067000F7003C24230504003C34A305040058245F
:100680005C345424A207D98FFD17C207C18313F726
:10069000F70F58A4A18358345CB43737024083570E
:1006A000A742C207C183CD9BC207C1832315F7426E
:1006B0008357A742194A1384C19AC207C1832315DD
:1006C000F742B7E700E0096723A2E710914A938950
:1006D000418A130B0009034509009C203357450349
:1006E000B3D747036314F70AA1BCEF300052982038
:1006F00037050020130B4B09B387EB402322FB0087
:1007000034243C345697A207D58F9A07D2972324D6
:10071000FB002326EB00EF30605185455A85EF3012
:10072000C04E37050020EF30804F65DD370B0240AB
:1007300013054B098145EF30404D982083C60900D1
:10074000930700093387E740B387E64013054B0959
:100750005CC134243C348545A207D58F9A07BA97EB
:10076000D2971CC523265501EF30204A9C2003C791
:100770000900BA97938707075DBD03D78184856712
:1007800093877738E3FBE7F0F93301BF22951C210B
:10079000639857031C31382185078A07CE9798A3A1
:1007A000383198B35821B8A35831B8B383470900FA
:1007B000990793F7F70FB3F767032300F90021BFF9
:1007C000413CEDB703D7818493073006938481843D
:1007D000E3FCE7F09385018213850184B13CB7E720
:1007E00000E0096723A2E71823A2E7181387C17561
:1007F00034273C371384C175A207D58F8607BA9773
:10080000F827FC37BA87238FF182638507101947D1
:10081000639DE70838243C34A207D98F13976700FB
:100820009386C135B307D7009C23C1E33C243834F9
:1008300022075D8F1A07369718339307D004631683
:10084000F7063C24383422075D8F1A073697382381
:1008500093073005631BF7043C24383422075D8F6F
:100860001A07369730339307E0046310F6043C24EC
:10087000383422075D8F1A073697582393073004C0
:100880006315F70238243C34A207D98F9A07B6972C
:10089000DC33639CC7009385818113850184693AA9
:1008A0009389A18485472380F90038243C34A2072A
:1008B000D98F8607A297F82723870700F837A387E1
:1008C000070038243C343424A207D98F8507C20797
:1008D000C18313F7F70F38A4A18338343CB438240C
:1008E0003C34A207D98F3D476378F7003C242305A9
:1008F00004003C34A305040058245C345424A207AB
:10090000D98FFD17C207C18313F7F70F58A4A1832E
:1009100058345CB4373702408357A742854619469E
:10092000C207C183CD9BC207C1832315F7428357FA
:10093000A742938501840D45C207C1832315F74261
:10094000B7E700E0096723A2E7102390040099238A
:1009500061BBEFF2EFFD85451145EF30A0518545B4
:1009600037050200EF30E05285450945EF3060520F
:1009700085450545EF30204E01456FF0AFFDEFF2A4
:100980002FFB3704004041111305044002C202C48A
:1009900023160100EF30805CB707002083A707080B
:1009A00037470F0013070724B3D7E7024C0013059E
:1009B000044023130100FD177C829307703E3EC460
:1009C000EF30605F130504408545EF30C066054693
:1009D000130504408545EF30E064B7E700E03707D2
:1009E000400023A2E710854513050440EF30006264
:1009F00041016FF02FF6EFF20FF2371401407971D9
:100A0000AA8A2E8913050480914532C602D002D2EB
:100A100002D402D602CA02CC02CEEF30803885441E
:100A2000114AC1494C081305048052CA26CC4ECE47
:100A3000EF304020374700408357C7404C0813052C
:100A40000480C207C183CD9BC207C1832316F74030
:100A5000A1473ECA930780043ECEEF30A01DE14778
:100A60004C08130504803ECE52CA26CCEF30801CC1
:100A7000A1674C08130504803ECA26CC4ECEEF3049
:100A8000601B56D02312010232468D67630699001F
:100A900089476319F90489672313F10285476316AF
:100AA000F604930700602314F10285672312F10214
:100AB00037440040B1470C10130504402315F102E0
:100AC00023160102EF30205A130504409305000459
:100AD000EF300066854513050440EF30C061456185
:100AE0006FF0AFE62313010255BF89476315F60087
:100AF000930700404DBF231401025DBF1387C175EA
:100B00002310070023110700231207002303070007
:100B1000F94674B3231407002315070023160700B2
:100B20009387C1750147414693161700BE962397D8
:100B300006000507E31AC7FE23870702239807026A
:100B400023990702238A0702239B0702238C0702AB
:100B5000A38C070223AA018423AC018415C5238D2D
:100B60000702130720FCA38DE7020547238EE70247
:100B7000A38E0702238F0702A38F0702214723803A
:100B8000E7047947A380E7048280EFF26FDA797196
:100B90002A842E89B28481451306C0024800EFF0F2
:100BA0002FDC39E43704024013050408EF205078A5
:100BB000B7470040938747403EC2C1473EC69307B0
:100BC00000083ECC4C008567130504084AC426C8BB
:100BD00002CA02CE02D002D23ED402D6EF20707FEB
:100BE000854513050408EF30400245616FF08FD64C
:100BF000370402401305C406EF209073B747004046
:100C0000938747403EC2930700083ECC93070002FB
:100C10003ED24C0085671305C4064AC402C626C8E6
:100C200002CA02CE02D03ED402D6EF20907A854589
:100C30001305C4064DBFEFF20FCE374400404111FB
:100C40002A89AE89328A13050440014693050004BF
:100C500036C6B7040240EF30604B1385C4068145A9
:100C6000EF20B07A138504088145EF20107AB24650
:100C7000D2854E853686413301469385C13501457F
:100C800029370566B7050020130606809385C53D04
:100C90000545E53D05469305000413050440EF3086
:100CA000E0464A85A13D41016FF02FCAEFF24FC8DF
:100CB0009387C17503C7D70383C6C70383C5B7032B
:100CC00003C6A703C20662073697329703C6E70337
:100CD00083C6F703A205BA950145B13FB737024075
:100CE0001387C13523ACE74003D7A74242074183AE
:100CF0004D9B420741832395E74203D7A742420712
:100D000041832395E7426FF0EFC401A001A0411198
:100D100022C637040040854513050440EF30603299
:100D200019C9854513050440EF30203383D78184EA
:100D300085072394F1843244410173002030EFF29F
:100D40002FBF85450545EF30E01285450565EF303D
:100D500080106FF02FC0B73702401307C0042386FE
:100D6000E74013078004A386E7401387417E23A84A
:100D7000E740371700201307471223AAE7401387DD
:100D8000C13523ACE740371700201307471623AEC1
:100D9000E74009472391E742239507422399E74219
:100DA00023920742239607422393E7422397E74281
:100DB0009387418623800700A380070023810700D3
:100DC000A381070023820700A38207002383070073
:100DD000A38307008280EFF2AFB5411185454145FD
:100DE00002C202C402C6EF30E008C1673EC24C0036
:100DF0009147371501403EC6EF20D063B707020088
:100E00003EC24C0093078004371501403EC6EF20D8
:100E1000706241016FF00FB4EFF28FB137070140FC
:100E20001C4F93F707F3A1E593E787081CCF39C15F
:100E3000B73402404D3723800440313F930790027E
:100E4000A38104402380F440FD572383F44093079B
:100E500010F8A380F4409D472381F4400967B7E769
:100E600000E01384044023A2E7106FF0AFAE93E7D5
:100E7000C70C6DBF9947373402402300F440294521
:100E8000EF30602EB7E700E023000440096723A29B
:100E9000E718E1BF9307F5FF93F7F70F194863676A
:100EA000F812EFF24FA793874186AA979C231389E4
:100EB0004186054793F7F70FE5EF85476305F50092
:100EC0001147631DE500B737024083C7C740054798
:100ED00093F7F70F6310E50491832DA81307E5FF3F
:100EE0001377F70F63EAE700B737024083C7D740AD
:100EF0000D4793F7F70FF9BF1307B5FF1377F70FF8
:100F000063E3E706B737024083C7E74093F7F70F7D
:100F1000E30405FD13F847000147630B0808B734E5
:100F20000240328A9319250013F617009384244255
:100F3000A18B2A84CE949DCF1307000409CA9C205C
:100F40001307000C93F7070499E313070008B7375A
:100F5000024093870741CE978843B7070020528607
:100F60003E953A95B1A8B737024083C7F74093F74B
:100F7000F70F4DB709C69C2093F70704A9E7373749
:100F80000240130707414E979DE6C205C1810CC37D
:100F9000B737024093870742CE97239047019C20A2
:100FA00033058900014793F7C70F9CA085471CA113
:100FB0003A856FF08F990843B707002052863E9517
:100FC000EF30402AF1B71307000451B705473A85BF
:100FD0008280011122CE3734024026CC4ACA4EC844
:100FE00052C656C45AC21304044078207C3013778A
:100FF000F70F93762700E386060C93F7F70F13F7A6
:101000000703930600026301D70A13060003630F68
:10101000C7344DE713F7F70309466308C7221146A3
:10102000630BC72E41EF104493F70704C1CB83C76E
:1010300041871384218793F70706A1CF1387E186A1
:101040002310040018239387E1866393E61A13871D
:10105000417E14239387C175238DD7021433A38D4A
:10106000D7023423238ED7023433A38ED7025423DE
:10107000238FD70254337823A38FD7022380E7042A
:101080007947A380E704F8331377F70FA380E704C9
:1010900031391E20C207C18395E3B7370240239040
:1010A000074213070004D5A093F7F7039306100235
:1010B000638CD70E63E5F602638BE704B737024013
:1010C00009472383E740938707407244E24452492B
:1010D000C249324AA24A124B0561730020301307FD
:1010E00030026383E70E13074002E399E7FC3E38C2
:1010F00093C707043EB83E38C207C183F19B93E70C
:1011000027003EB8938741862382070045BF938717
:1011100021879E2393842187C207C18381E7930798
:1011200000083EB083C7418793F70706C1FB83C71A
:10113000E186154793F7F70F638CE7041947E39FA0
:10114000E7F69E201307F003130400046365F7001D
:1011500082204204418013898187832909002286E5
:10116000CE851385417EEF30E00F9E20A29923208B
:101170003901818FC207C1839EA0B73702402390F7
:10118000874203D72742134707042391E7423DB71D
:10119000373702408347374083C6E18593F7070816
:1011A000D58FA301F74019BF7E3093C707047EB0E7
:1011B0007E30C207C183F19B93E727007EB09387FF
:1011C0004186A3800700DDBD7E3493C707047EB44B
:1011D0007E34C207C183F19B93E727007EB49387D7
:1011E0004186A38107009387C175238A0702F9B559
:1011F0009C232547E31FF7E81389C18503550900A0
:1012000093140601C1809387417A26863E95938583
:10121000417EEF3020051E20858FC207C1831EA0AE
:1012200083570900BE94C204C18023109900B737C8
:10123000024003D72742134707082391E74203D709
:101240002742318B2391E742A9B53E3493C7070863
:101250003EB41387C17510440C27143742064182EF
:10126000A206CD8E8606BA969375F60FE8262182E1
:10127000ECA6EC36F0B6102714370C279387C1750F
:10128000A206D18E8506C206C18213F6F60F10A7FC
:10129000A182103714B710271437A206D18E9A06F0
:1012A0001386C135B29614CC142718372207558FF0
:1012B000BD4663F9E6009827238407009837A38486
:1012C000070010CCD427D837D0272207558F050721
:1012D000420741839376F70FD4A72183D437D8B739
:1012E000D427D8372207558FB546E3F9E6DCB73661
:1012F000024003D7A64293860640420741834D9B96
:1013000042074183BAB6BA3613678700BAB60547B3
:10131000A38CE70265B33E38014793C707083EB880
:1013200014449387417EC206C18285076316D702A3
:10133000B73702402398E74203D727434207418348
:10134000719B420741832399E74203D72743420712
:1013500041832399E7429DB303C6F703050742077C
:101360001346F6FFA38FC7064183C1B79307A00CAE
:101370003EB09385417E9C211386418798311CA203
:10138000F6219387E18698A31387218716A3B621B8
:101390009388618703D845002390D800138501877F
:1013A000231005010348060013892187938941878B
:1013B000137808061386417E138761879386018719
:1013C000630C081603C80900938A81871378080202
:1013D000630908149C23294893F7F70F6386070FC6
:1013E0006366F80209476389E7106368F7000547F9
:1013F0006385E7081304F00F05A80D476388E7101D
:101400002547E399E7FE239E01848DA01306100271
:101410006380C7066366F6042D466383C70C130713
:1014200000020144E398E7FC835709001307F00327
:10143000930400046366F70083540900C204C1806A
:1014400003AB0A0026861385417EDA85DA94EF2005
:10145000706123A09A009307F00F6315F420E1A4B4
:10146000130730021304F00FE360F7FC01446DBF73
:101470009387617923A0FA00D5BF9E221304F00F51
:10148000C207C183D5F39387C18523900700835793
:1014900009001307F0039384C185130400046366F5
:1014A000F70003540900420441808E209387417A5B
:1014B0002286BE951385417EEF20D05A9E203E9411
:1014C0004204418082A05DB71E211304F00FC207C1
:1014D000C183B9FB83D70800A1832386F18679B73E
:1014E0009E221304F00FC207C1839DFF1E2393F7B2
:1014F000F70FA386F1869DBF1E211304F00FC207CC
:10150000C1839DF383C7C1869CA18DB79E2213041E
:10151000F00FC207C183E39907F083C7D1861CA2ED
:10152000B1B703C4090019801344140005883304BB
:1015300080401374F40FCDBD9C23AD4593F7F70F96
:1015400063E3F51E95658A0793850559AE979C431D
:1015500082871E230D46A183938481876388C70AEF
:10156000636CF60005476388E7020947638BE7066B
:1015700081471304F00F3DA013071002638EE706A6
:1015800013072002E396E7FE9967938747A79CC05D
:101590009307200239A09967138707A683C707A678
:1015A00098C001440357090063F4E7002310F900D1
:1015B000835709001307F003930A00046367F700D9
:1015C000835A0900C20A93DA0A0103AB0400568663
:1015D0001385417EDA85DA9AEF20D04823A05401A2
:1015E0009DBD19671307479F3C3398C03823A20756
:1015F000BA97C207C18375B79E220947E31AF7F667
:101600009967938787A49CC0A54761BF1A23854625
:101610001377F70F6305D70209CF89466308D7020E
:10162000E318F7F499671387C7AB98C083C7C7ABB4
:101630008DBF1387818298C083C781829DB79967C8
:10164000138787A998C083C787A9A1BF9967138704
:1016500087AA98C083C787AAA9B71E2393F7F70F55
:10166000238FF18483C7090003570900E207E1874C
:1016700063D807229307000463E6E7008357090055
:10168000C207C183035709001D8F420741832310FE
:10169000E900373702402310F74293070004231173
:1016A000F74229BC83C7F1851CA20357090085476F
:1016B000E3FAE7FA2310F90075B71E2393F7F70F43
:1016C000A38FF18405472380E18669BF83C70900A2
:1016D000FD8B91EF1E23054793F7F70FE394E7F88F
:1016E0009387118698231377E70F98A3A5BF03C6A6
:1016F000090089477D8A6318F6021E2393F7F70FC6
:101700009DE39E22373702409306100893F7F70FA8
:10171000130707406388D70263ECF6006386C702AD
:1017200091466388D702B73702401307F00CB1BC6B
:1017300093063008638DD70093064008E395D7FEE3
:1017400032BB0DB772B339BF2315070221BF72B781
:1017500011BF2319070239B783C70900FD8B9DE329
:101760001E23054793F7F70FE39FE7FA996783C7AF
:10177000B79F93F70702C5DB9387118698231367FA
:101780001700A5B703C6090089477D8AE31DF6F84F
:101790001E2393F7F70FC1FB9A22B7370240930637
:1017A00010081377F70F93870740630AD70263EB9C
:1017B000E600630BC7029146E317D7F6BA3B1367FF
:1017C000C70021A8930630086305D7029306400896
:1017D000E31BD7F4BA3B13673700BABB61B5FA33E2
:1017E00013673700FAB3BDBDBA371367C700BAB77E
:1017F00095BDFA3713673700FAB7ADB52300060079
:101800006DB583C7090023100600FD8B85E383C7F0
:1018100011860144858B99C389471CA2035709008F
:101820008947E3FAE7C22310F90035B183C50900FF
:1018300089471304F00FFD89E392F5FE9E223737A6
:1018400002409306100893F7F70F130707406385CC
:10185000D70263E9F600638BB7029146E390D7FCA9
:101860003E3B35A0930630086386D70293064008B6
:10187000E396D7FA3E3B05A07E330D4701448D8B9E
:10188000E39EE7F885471CA2014449BF3E37B18B70
:10189000314721A07E378D8B0D47E397E7FEDDB7FB
:1018A0004207B737024041839387074001EB2390FB
:1018B000070213070004BAB36FF05F801307000834
:1018C000DDBF9377170085C7A38F0184238F018421
:1018D000A380018623800186A3010400EFF0AFC737
:1018E0000545EFF0AFA185477CA06FF00FFE937721
:1018F000470085CB91477CA02945EF20D006583082
:1019000093871186118B01CB98231367270098A327
:101910009C236FF08FFB98231377D70F98A36FF05A
:10192000CFFA78A06FF06FFA37F7FF1F9306877E24
:101930009387C1A51307477F902285068507A38F4C
:10194000C7FEE39BE6FE82809387C1A593069005C0
:10195000D4AF93068005D4BF1388E7019385C1A552
:101960001386C1A59386C1A5782E683E1347F7FF5D
:10197000134515051377F70F78AE68BE22072A972F
:1019800083C8F500882142074183330515036300AE
:10199000A7029823238F07008507134757FAA38FC1
:1019A000E7FEE39807FFA38F060001458280090642
:1019B0008505E31B06FB9823238F07008507134744
:1019C00057FAA38FE7FEE39807FF8547FCBE05455E
:1019D0008280EFE2EFF5AA841304900C8945373535
:1019E0000140EF2000570DC5A68537350140EF2097
:1019F000C0551304900C854537350140EF206055E4
:101A000019CD37350140EF2080541375F50F31A003
:101A10007D141374F40F79F001456FE0AFF37D147A
:101A20001374F40F69F8CDBFEFE28FF03715014062
:101A3000014693050008130505C0EF206037130524
:101A4000B004413F1305F00F69371305F00F51370C
:101A50001305F00FBD3F1305F00F1384C1A5953F8B
:101A6000930404011305F00FAD3748A40504E31BEC
:101A700094FE37150140054693050008130505C07F
:101A8000EF2000336FE00FEDEFE2EFE80111854545
:101A900021453714014002C002C202C402C602C876
:101AA00002CA02CC231E0100EF20C03C85444149FC
:101AB000130A00088A85130504C052C04AC426C20E
:101AC000EF204017130504C093050008EF20602D98
:101AD00085454145EF20003AA1478A8537150140E9
:101AE0003EC04AC426C2EF20E014056585451105B5
:101AF000EF20403893070002E1498A8513050480EE
:101B00003EC04EC426C2EF20E012930700043EC040
:101B10008A859147130504803EC4EF20A0118A8571
:101B20001305048052C04EC426C2EF20A0109307B4
:101B300000208A85130504803EC04AC426C2EF20D7
:101B4000600F1305048093050020EF208025B70760
:101B500004013EC6B70702003EC8B707000285076A
:101B60003ECA6C009D4737350140FC8602CCEF2011
:101B7000E0370546894537350140EF20E03B054613
:101B8000854537350140EF20203B854537350140FD
:101B9000EF20E03805616FE04FDBEFE2CFD705655E
:101BA00001118545510502C002C202C402C602C825
:101BB00002CA02CC231E0100EF20C02B854521451F
:101BC000EF20402B3714014085444149130A000897
:101BD0008A85130504C052C04AC426C2EF2080057E
:101BE0008A851305048026C04AC426C2EF208004DB
:101BF00085454145EF200028A1478A8537150140DA
:101C00003EC04AC426C2EF20E00293070002E14929
:101C10008A85130504803EC04EC426C2EF20800191
:101C2000930700048A85130504803EC04AC426C277
:101C3000EF2040001305048093050004EF20601698
:101C40008A851305048052C04EC426C2EF10907ED0
:101C5000930700208A85130504803EC04AC426C22B
:101C6000EF10507D1305048093050020EF206013D2
:101C7000B70704013EC6B70702003EC8B707000217
:101C800085073ECA6C009D4737350140FC8602CC73
:101C9000EF20C0250546894537350140EF20C02992
:101CA0000546854537350140EF2000298545373504
:101CB0000140EF20C02605616FE02FC9EFE24FC75A
:101CC00037140140014693050008130504C0EF20B6
:101CD000200E1545FD391305F00FE539AA84054698
:101CE000130504C093050008EF20800C26856FE0E3
:101CF0006FC6EFE2EFC3D937058975FD6FE08FC579
:101D0000EFE20FC3371401400146930500081305A5
:101D100004C0EF20E0091945EFF0BFCB054693055D
:101D20000008130504C0EF20A0086FE0AFC2EFE287
:101D30002FC0B7140140014693050008138504C065
:101D4000EF20000713050009EFF0BFC80145EFF0D1
:101D50005FC80145EFF0FFC70145EFF09FC71305CE
:101D6000F00FEFF01FC72205131405011305F00F44
:101D7000EFF03FC64180498C0546138504C09305AA
:101D8000000842044180EF20A00222856FE08FBC52
:101D9000EFE20FBA2A89371501402E84130505C0DA
:101DA00093050008B2840146EF2080000D45EFF056
:101DB0005FC2135504011375F50FEFF09FC1135562
:101DC00084001375F50FEFF0DFC01375F40FEFF01B
:101DD0005FC0014493170401C18363ED9700371579
:101DE0000140054693050008130505C0EF10507C1F
:101DF0006FE04FB61305F00FEFF0BFBDB3078900DA
:101E000088A30504C1BFEFE2AFB24111371401400E
:101E100093070004AA843EC24C0091471305048036
:101E20003EC602C4EF101061014693050008130579
:101E300004C0EF10F0770D45EFF0BFB913D50401E2
:101E40001375F50FEFF0FFB813D584001375F50F78
:101E5000EFF03FB813F5F40FEFF0BFB71305F00F35
:101E6000EFF03FB7AA840546130504C093050008A8
:101E7000EF101074268541016FE0CFADEFE24FAB5C
:101E80002A8937150140014693050008130505C04E
:101E9000EF10107213058004EFF0BFB30145EFF0AF
:101EA0005FB34145EFF0FFB20145EFF09FB213057C
:101EB000F00FEFF01FB20144930400101305F00F70
:101EC000EFF03FB1B307890088A30504E31894FE3F
:101ED00037150140054693050008130505C0EF10AE
:101EE000306D6FE02FA7EFE20FA337040240584C8C
:101EF000C167F9177D8F58CC1858AA84AE89F98F1D
:101F00001CD8930715005CDC08D4371501403289D2
:101F1000930500080146130505C0EF107069AD4731
:101F20009CB093D70901BCA093D78900BCB0238291
:101F30003401930759005CD81909232024035C4C11
:101F4000130AC401930A040393E717005CCC1C58DE
:101F500093E717001CD813050020EF10504C65DDE7
:101F600013050020EF10904C3715014005469305EE
:101F70000008130505C0EF10B0636FE00F9DEFE29E
:101F80008F99B7040240AE89CC4C32894166411129
:101F9000791636C63AC43EC2F18DCCCC8C582A8410
:101FA000138AC4016D8E90D813061500D0DC88D436
:101FB000371501400146130505C093050008EF10D1
:101FC000305F2D4610B013D6090130A013D689001A
:101FD00030B02302340113065900D0D890D0D04C31
:101FE0002247924713661600D0CC9058B24613D8B9
:101FF00087001366160090D8135619003A964206C9
:10200000938A040393F7F70F4182370502400C517E
:10201000E36FB9FE6360C70413050020EF10304082
:1020200065DD13050020EF10704013050002EF106E
:10203000103F65DD13050002EF10503F37150140DA
:10204000054693050008130505C0EF1070564101C1
:102050006FE0AF8F93553700B695038505000904EF
:10206000635D0500230F04FFA30FF4FE882105071D
:102070004207060588A1418371BF2830230FA4FEC3
:102080004820A30FA4FEDDB7EFE20F8801119307EC
:102090000004B71401402E843ECA13850480914782
:1020A0004C0832C602CC3ECEEF10D0383246220465
:1020B000B70B0020220637090240B30A860093843A
:1020C00004C0094C138B4B12130909036315540107
:1020D00005616FE0EF86EFF0BFC2EFF09FC10146F0
:1020E000930500082685EF10B04C13051008135A0D
:1020F0000401EFF01F8E137AFA0F52859359840072
:10210000EFF03F8D93F9F90F4E85EFF09F8C01456D
:10211000EFF03F8C0546930500082685EF105049E7
:10212000EFF03FBDEFF0DFBDEFF0BFBC0146930520
:1021300000082685EF10D04781454A8523828B13FE
:10214000A3004B0123013B01A3010B00EF10F02B77
:1021500093074010232669012322F90085454A850B
:10216000EF10B02A13050020EF10702B65DD13056A
:102170000020EF10B02B0546930500082685EF10D0
:10218000304313040410EFF0DFB689B7EFD2BFF885
:102190004111328993070004B71901401394850057
:1021A0003EC21385098091474C002209B70A0020DE
:1021B000B704024002C43EC62299EF10B0279389AB
:1021C00009C0094B138A4A1293840403631524013E
:1021D00041016FD09FF7EFF0BFB2EFF09FB1014622
:1021E000930500084E85EF10B03C93570401A300FF
:1021F000FA0081459357840026852301FA00238243
:102200006A13A3010A00EF1050209307401023A681
:102210004401DCC085452685EF10301F13050020E2
:10222000EF10F01F65DD13050020EF10302005468C
:10223000930500084E85EF10B03713040410EFF03B
:102240005FAB69B7EFD2DFEEAA8437140140EFF03D
:102250003FABEFF01FAA014693050008130504C029
:10226000EF10103513051008EFF0AFF613D584000A
:10227000EFF02FF613F5F40FEFF0AFF50145EFF0A7
:102280004FF5054693050008130504C0EF105032C2
:10229000EFF03FA66FD01FECEFD29FE9AA8437146E
:1022A0000140EFF0FFA5EFF0DFA401469305000821
:1022B000130504C0EF10D02F13050002EFF06FF1EB
:1022C00013D58400EFF0EFF013F5F40FEFF06FF09B
:1022D0000145EFF00FF0054693050008130504C013
:1022E000EF10102DEFF0FFA06FD0DFE6EFD25FE42C
:1022F000AA8437140140EFF0BFA0EFF09F9F014682
:1023000093050008130504C0EF10902A130520055B
:10231000EFF02FEC13D58400EFF0AFEB13F5F40FD3
:10232000EFF02FEB0145EFF0CFEA054693050008EB
:10233000130504C0EF10D027EFF0BF9B6FD09FE1D3
:10234000EFD21FDFAA8437140140EFF07F9BEFF03C
:102350005F9A014693050008130504C0EF1050254D
:102360001305800DEFF0EFE613D58400EFF06FE674
:1023700013F5F40FEFF0EFE50145EFF08FE50546BB
:1023800093050008130504C0EF109022EFF07F962C
:102390006FD05FDCEFD23FD841112A8A9307000447
:1023A000371501403EC2AE8491474C0013050580AD
:1023B0003EC61374FA0702C4EF10D00793577A0091
:1023C000135944003D88858B11C0050913797900A4
:1023D00063050900850793F7F70F93F91700269A0D
:1023E00033059A404205418111C0D1E0338AA400EF
:1023F000BD4A33049A404204418063120908639C39
:1024000009082689330A94009309F00F33052A41FD
:102410004205418163E1290B93F704F03E941307D1
:1024200000F093D78400B387E70242044180BE9452
:10243000C204C18013F9F407135A49009D809379AF
:10244000FA0F1379F90081C82285130404084204A5
:10245000EFF0DFE94180A28463970906120A5294E3
:1024600042044180631B090641016FD01FCEFD1459
:10247000C2040504EFF01FDDC1803D8895B7E3F28B
:102480009AF8C1142285C2040509EFF0FFE0C1806B
:1024900013797900B9BF9307F007E3F497F6228523
:1024A000938404F8130404084204C204EFF01FE408
:1024B0004180C180B9B7130909F04209EFF05FE824
:1024C00013590901A1B72685C104C204FD19EFF013
:1024D000BFDCC18093F9F90F41B72285050442049E
:1024E0007D19EFF03FD641801379F90FA5BFEFD2E8
:1024F0003FC437140140AA840146130504809305A4
:102500000020EF10F00A0146A14537150140EF10F9
:10251000300A01469305000413050480EF105009AA
:102520002685EFF00FCB13050480054693050020A8
:10253000EF1010080546A14537150140EF10500770
:102540006FD05FC1EFD2DFBE37140140AA840146CD
:102550001305048093050020EF1090050146A14566
:1025600037150140EF10D00405469305000413050C
:102570000480EF10F0032685EFF0AFC5130504804B
:10258000054693050020EF10B0020546A14537151A
:102590000140EF10F0016FD0FFBBEFD27FB93714CD
:1025A0000140AA8401461305048093050020EF1022
:1025B00030000146A14537150140EF10607F054608
:1025C0009305000413050480EF10807E13D584006A
:1025D0001375F50FEFF0EFBF13F5F40FEFF06FBFCA
:1025E00013050480054693050020EF10607C054626
:1025F000A14537150140EF10A07B6FD0BFB5EFD2DA
:102600003FB313056003EFF09FEE13050006EFF0F4
:102610007FF31305A003EFF09FED1545EFF09FF258
:102620001305200BEFF0BFEC3145EFF0BFF1314562
:10263000EFF05FF10145EFF0FFF013053003EFF02D
:102640007FF013053003EFF0FFEF1305700BEFF091
:102650001FEA13055003EFF0FFEE1305B00BEFF088
:102660001FE96545EFF01FEE1305000CEFF03FE8A2
:102670001305C002EFF01FED1305200CEFF03FE74C
:102680000545EFF03FEC1305300CEFF05FE64945F0
:10269000EFF05FEB1305400CEFF07FE51305000250
:1026A000EFF05FEA1305600CEFF07FE43D45EFF0DB
:1026B0007FE91305000DEFF09FE31305400AEFF0EB
:1026C0007FE81305100AEFF0FFE71305000EEFF0A7
:1026D0001FE21305000DEFF0FFE61145EFF09FE656
:1026E0003545EFF03FE64545EFF0DFE54D45EFF0CE
:1026F0007FE51305B002EFF0FFE41305F003EFF000
:102700007FE413054005EFF0FFE31305C004EFF08D
:102710007FE36145EFF01FE33545EFF0BFE22D4564
:10272000EFF05FE27D45EFF0FFE113053002EFF0DF
:102730007FE11305100EEFF09FDB1305000DEFF0A6
:102740007FE01145EFF01FE03145EFF0BFDF454579
:10275000EFF05FDF4D45EFF0FFDE1305C002EFF055
:102760007FDE1305F003EFF0FFDD13054004EFF00B
:102770007FDD13051005EFF0FFDC1305F002EFF02D
:102780007FDC7D45EFF01FDC7D45EFF0BFDB1305FF
:102790000002EFF03FDB13053002EFF0BFDA130564
:1027A0001002EFF0DFD44545EFF07FD4130590021F
:1027B000EFF0FFD36FD01F9AEFD29F977971130676
:1027C00000028145080802C202C402C6EFD05F9928
:1027D00085452145EF10006A854513050020EF105F
:1027E00060693715014089474C00130505C037243F
:1027F00001403EC202C6EF10E043130504409305BA
:102800005002EF108031B7070E003ECE0C0885470E
:10281000130504402302F10202C802CA02CC02D00E
:10282000EF10201D130504408545EF10E02183279C
:1028300044403707000113040440D98F5CC0456150
:102840006FD05F91EFD2DF8E37240140AA859D467D
:10285000130504400546EF10202093070007232EA0
:10286000F44213050440930700042326F4442A8409
:1028700089452285EF10C02965DDB727014003A5F2
:10288000C744420541816FD0FF8CEFD27F8A3971F6
:102890002A842E89B28481451306C002480836C6B0
:1028A000EFD01F8C85450545EF10E05A2285EF10CB
:1028B0002028B246C1473ECE930700083ED44C08BC
:1028C000896722854ACA26CC36D03EDC02D202D69F
:1028D00002D802DA02DEEF10C02F21616FD09F878D
:1028E000EFD21F8539712A842E89B284814513065F
:1028F000C002480836C6EFD0BF8685450545EF10B3
:1029000080552285EF10C022B246930700083ED4BE
:102910004C088D6722854ACA26CC36D03EDC02CED2
:1029200002D202D602D802DA02DEEF10802A21613A
:102930006FD05F82EFD2CFFF39712A84AE843289A3
:1029400081451306C002480836C6EFD07F81854511
:102950000545EF1040502285EF10801D93070004BD
:10296000B2463ED2930700083ED485673EDC4C0851
:10297000916722854ACA26CC36D03EDE02CE02D6E8
:1029800002D802DAEF10E02421616FD0AFFCEFD261
:10299000AFF7AA841305A0022E843289368ABA8A38
:1029A000EFF0FFB40145EFF0FFB92685EFF09FB9D6
:1029B0000145EFF03FB9138574001375F50FEFF083
:1029C0007FB81305B002EFF09FB20145EFF09FB75B
:1029D0002285EFF03FB70145EFF0DFB61305740035
:1029E0001375F50FEFF01FB61305C0029569EFF0F0
:1029F0001FB00E0981449389095C130B0008A14B99
:102A0000B3872401CE9703CC07000144B3578B4012
:102A1000B3F78701528591E356850504EFF0FFB7C0
:102A2000E31674FF8504E39D84FC6FD06FF1EFD251
:102A30008FEE2A84AE843289B6893A8A930A800E50
:102A40000306090019E26FD04FF022852104528756
:102A5000CE86A6851374F40FEFF07FF363F68A0039
:102A6000A90493F4F40F01440509D9BFEFD2AFEAEA
:102A700083C7B1842A8A2E89B289B684D1E341649E
:102A8000376600001307F4FFFD461306069B930507
:102A9000800E0145EFF0BFF9376600001307F4FF21
:102AA000FD461306869B9305800E13050002EFF08A
:102AB0001FF8376600001307F4FFFD461306069C57
:102AC0009305800E13058005EFF07FF63766000052
:102AD0001307F4FFFD461306469C9305800E13056D
:102AE0000007EFF0DFF4376600001307F4FFFD4640
:102AF0001306869C9305800E13058008EFF03FF3C4
:102B00001305A002EFF0BF9E0145EFF0BFA31375C0
:102B1000FA0FEFF03FA30145EFF0DFA213F5F90F35
:102B2000EFF05FA21305B002EFF07F9C0145EFF0DC
:102B30007FA11375F90FEFF0FFA00145EFF09FA003
:102B400013F5F40FEFF01FA01305C002EFF03F9A4A
:102B50006FD0AFDFEFD22FDC0111930700042A8979
:102B60003ECA37150140C147AE893ECE4C08854765
:102B7000130505803AC63ECC3284B684EF10800B34
:102B800033068900B3869900FD167D164A85CE85E9
:102B9000EFF0DFED3247B7070020138947121356D5
:102BA0008700930609109387471290A398B389076B
:102BB000E39DD7FE33049402B714014013850480CB
:102BC000014693050020EF10A01E0146A1453715D0
:102BD0000140EF10E01D13850480054693050004B5
:102BE000B7040240135A7440EF10801C814993844B
:102BF0000403930A00106390490706041374F40F4A
:102C00000DC8B7040240138504038145EF00F07F2F
:102C1000138504032326250140C18545EF00F07E7E
:102C200013050020EF00B07F65DD13050020EF00E5
:102C3000F07F3715014005469305002013050580F8
:102C4000EF1000170546A14537150140EF1040165B
:102C500005616FD08FCF81452685EF00107B23A6BD
:102C6000240123A2540185452685EF00107A13051F
:102C70000020EF00D07A65DD13050020EF00107B07
:102C8000850995BF9307051098211105230EE5FED0
:102C90009831A30EE5FEB821230FE5FEB831A30F4E
:102CA000E5FEE313F5FE8280EFD20FC641119307D4
:102CB00000043EC237140140C147AA89AE8A1305F9
:102CC00004803EC64C0085473689B2843A8A3EC4A9
:102CD000EF0050761386F4FFB38424039306F9FFC4
:102CE0004E964E85B7090020D696D685938949120F
:102CF00037090240EFF09FD7860493DA8400D29A16
:102D0000114B1304048013090903938B6900639F1B
:102D10004A0B93F4F40FC5C83714014091471305CB
:102D200004804C003EC637090020EF00B0702686B4
:102D30001305491293958A00EFF0EF9AC1471305E6
:102D400004804C003EC6EF00F06E1305048001467F
:102D500093050020EF10C0050146A145371501403D
:102D6000EF100005130504800546930500043704A1
:102D70000240EF10E003130504038145EF00F06803
:102D8000130949121305040319092326250144C117
:102D90008545EF00906713050020EF00506865DD62
:102DA00013050020EF009068371501400546930594
:102DB000002013050580EF00B07F0546A1453715BB
:102DC0000140EF00F07E41016FD08FB74C002285AB
:102DD0005AC6EF0030661306001093158A004E8520
:102DE000EFF06F90C1474C0022853EC6EF00906423
:102DF0000146930500202285EF00907B0146A14506
:102E000037150140EF00D07A05469305000422856E
:102E1000EF00107A81454A85EF00305F930700107C
:102E2000232679012322F90085454A85050AEF000A
:102E3000D05D13050020EF00905E65DD13050020D6
:102E4000EF00D05E2285054693050020EF00507606
:102E50000546A14537150140EF0090754DBDEFD2F5
:102E60002FAD011193070004371401403ECAC1473A
:102E7000AA842E893ECE4C088547130504803ECC9B
:102E800032C636C4EF00105BA2463246CA85FD1634
:102E90007D16CA9626962685EFF05FBD1305048041
:102EA000054693050004EF00B07013050480014649
:102EB00093050020EF00D06F0146A1453715014072
:102EC000EF00106F05616FD0EFA8EFD26FA62A89CF
:102ED00037150140AE840146930500201305058097
:102EE000EF00106D0146A14537150140EF00506C11
:102EF00037040240814513050403EF001051232ECF
:102F0000240344D813050020EF0050521304040397
:102F100085452285EF00704F13050020EF003050EB
:102F200065DD13050020EF007050371501400546A0
:102F30009305002013050580EF0090670546A14525
:102F400037150140EF00D0666FD0CFA0EFD24F9E73
:102F500013050020EF00B04C65DD13050020EF00E5
:102F6000F04C3715014005469305002013050580F8
:102F7000EF0010640546A14537150140EF0050638E
:102F80006FD04F9D13DE86001353860081476393F5
:102F9000E700828013D837002A988308080063DF8F
:102FA00008002380650090B1834808008507C207A8
:102FB000860823001801C1838905D1BF2380C5017C
:102FC00094B1DDB7EFD2CF9341113E8A930700044D
:102FD000371B01403EC2C147AA89AE8B13050B8047
:102FE0003EC64C0085473A84B6843289C28A3EC4C4
:102FF000EF0050441306F9FF330999029386F4FF5A
:10300000DE964E96DE854E85EFF05FA6931984001E
:10301000120493040B80135779003A941204914BD5
:10302000370B0020639A890C9374F9076383040CAF
:10303000371401409147130504804C003EC6EF0051
:10304000703F13D634000506CE851385C188EFE0A6
:103050009FE9370900202687D68652869305A91254
:1030600013852189EFF01FF2C147130504804C003E
:103070003EC6EF00303C1305048001469305002056
:10308000EF0010530146A14537150140EF005052A3
:103090001305048005469305000437040240EF0041
:1030A0003051130504038145EF0030361305040346
:1030B0001309A91223262501860444C18545EF0082
:1030C000D03413050020EF00903565DD1305002096
:1030D000EF00D03537150140054693050020130554
:1030E0000580EF00F04C0546A14537150140EF0083
:1030F000304C41016FD08F844C0026855EC6EF00B6
:1031000070334146CE851385C188EFE0DFDDD6867A
:103110001307000552869305AB1213852189EFF042
:103120007FE6C1474C0026853EC6EF00B030014621
:10313000930500202685EF00B0470146A1453715CD
:103140000140EF00F0460546930500042685EF0098
:103150003046B7070240138507038145EF00F02A88
:10316000B7070240138507031307AB1258C593072F
:1031700000105CC18545EF00502913070003D68677
:1031800052869385A1941385C189EFF0BFDF1305A3
:103190000020EF00D02865DD13050020EF00102986
:1031A0000546930500202685EF0090400546A14581
:1031B00037150140EF00D03FC109ADB5EFC25FF454
:1031C000330AD60201113E8C930700043ECAB71998
:1031D0000140C1472A8B2E84B304C5003ECE13851F
:1031E000098085474C083A89C28B3ECC36C2EF0035
:1031F000702492461386F4FFA285FD16A2965A8586
:10320000EFF0DF86937AFA07135A7A0022099317B0
:103210004A003EC2B70C0020CA97A20B3EC4DA8D0A
:103220004AC693890980938C4C12A2476313F9080C
:1032300063850A243715014091474C081305058022
:103240003ECEEF00301FB24712474146B385E7003C
:103250001385C188B7090020EFE0FFC805040149C4
:1032600093894912130D001E938B0BE263FE9D029E
:10327000B305A4031315190093981D001317090132
:10328000338AB44133862A414E954183DE95C695F3
:103290006364461513161A0042064182E28793863C
:1032A0002189EFE0DFCD52990504DA8DE36059FD05
:1032B00025AA91474C084E853ECEEF00B0174146F7
:1032C000CA851385C188EFE01FC2014A130E001E94
:1032D000930E00081303F00763FD9D0EB307C403AC
:1032E00093951D00DE9513151A0013170A01338DEF
:1032F000B44166954183BE95B3874E4163E9A70308
:1033000013161D0042064182E28793862189EFE071
:103310001FC76A9A930E0008130D1400130E001EA7
:103320001303F0070504DA8DE37843FB15A0795603
:103330003306C702E28793862189228D1306061081
:1033400042064182EFE0BFC393880D08B38D484128
:10335000C1474C084E853ECEEF00D00D0146930587
:1033600000204E85EF00D0240146A14537150140CD
:10337000EF0010240546930500044E85EF0050230E
:1033800037040240130504038145EF0010081305BC
:10339000040323269501930700105CC18545EF00C7
:1033A000D00613050020EF00900765DD130500200F
:1033B000EF00D0070546930500204E85EF00501F13
:1033C0000546A14537150140EF00901E41096A846A
:1033D000A9BD130D1400B9B7060642064182E28763
:1033E00093862189EFE0BFB937140140C147130527
:1033F00004804C083ECEEF00F00313050480014624
:1034000093050020EF00D01A0146A1453715014071
:10341000EF00101A13050480054693050004EF0021
:10342000301937040240130504038145EF00E07DA5
:10343000B707002013050403938747125CC5860A6B
:10344000232255018545EF00407C13050020EF0045
:10345000007D65DD13050020EF00407D371501403C
:1034600005469305002013050580EF0070140546FE
:10347000A14537150140EF00B01305616FC01FCCA7
:10348000EFC21FCB3E963A88B68732879306000478
:1034900013060002EFF01FB36FC0DFCBEFC25FC9AE
:1034A0003E963A8813170601B687418393060004B7
:1034B00013060002EFF09FD06FC0DFC9EFC2DFC478
:1034C0000111B7140140930700042A892E8A13853D
:1034D00004803ECA4C089147BA8BB68932C63ECEAC
:1034E00002CCEF00207532469307E0053704002038
:1034F0000C221305441293DA8B009385F5F5B385FE
:10350000F5021C3213060002130B44129387F7F5E1
:1035100093FBFB0F130C0010BE958567938707275D
:10352000BE959605EFE0DF86C147138504803ECE49
:103530004C0885473ECCEF00E06F9306FA00130677
:10354000F900D2854A85EFF06FD2138504800146D9
:1035500093050020EF00D0050146A1453715014035
:10356000EF0010051385048005469305000413DA67
:103570008900EF00F00381441309441293F9F90F15
:1035800013D43400B30764018387070063D10704B1
:103590005285EFE00FC44E85EFE0AFC34A941C2084
:1035A000850486071CA0E39D84FD37150140054670
:1035B0009305002013050580EF00807F0546A14597
:1035C00037150140EF00C07E05616FC07FB756859B
:1035D000EFE02FC05E85C9B7EFC29FB2AE89B70AD0
:1035E0000020370A0240B735014079712A89B68C2C
:1035F00013050A0393060010B105328C13864A1294
:103600003AC0EFF08FA8930700043ECAB7140140F8
:10361000C147138504803ECE4C0885473ECC192D0A
:103620009386F9001306F900CE854A85EFF00FC4A2
:103630000247856B4A84931787003EC093D78C005E
:103640003EC293874A123EC693070901014B9384F9
:1036500004803EC4130D0008938B0B27130A0A0342
:1036600091474C0826853ECEF123CE8A814D130822
:10367000001E9306F007A247637DF412B3880A0385
:10368000B24713951D00931514003E958247B30968
:10369000894013860901BE95C695B308BD4163E60E
:1036A000C802060642064182EFE08FEE93870D01C5
:1036B000B38DF9001308001E93891A009306F007D2
:1036C000850A4A84E3F9B6FB39A879563386CD02D8
:1036D000130404083304B441D689130606104206C5
:1036E0004182EFE0EFEA83450C009307E005414695
:1036F0009385F5F5B385F50283471C000810938781
:10370000F7F5BE95DE959605DA95EFE06FE8B70719
:103710000020138747128147101893D63700B296BE
:1037200003C606FF93158601E18563D60500924521
:10373000A30097010CA306062388C6FE8507090788
:10374000E39CA7FDC1474C0826853ECEE5210146F6
:10375000930500202685A92D0146A1453715014076
:10376000812D0546930500042685992581455285BE
:103770006929930700102322FA008545528571219B
:103780001305002069296DDD13050020452105463C
:10379000930500202685292D0546A14537150140B2
:1037A000012D410B93070002E31CFBEA45616FC04A
:1037B000FF9893891A0029B7EFC2FF95054519258F
:1037C000A522EF00B017716513050520EF00101D4D
:1037D000B707002083A50708376500001305459D3E
:1037E000EF0070338926AA85376500001305459ED2
:1037F000EF007032EFD0EF95EFD06F98EFD02FD46D
:10380000E523AA850545EFD02FE19387C1750549CA
:10381000238A270303C76703238B070203C77703A2
:10382000B709002037340140B7040240138649121B
:103830009305C400814613850403A38B0702EFF0B0
:10384000CF84138649129305C40081461385C401B1
:10385000EFF00F899389C1A39385C1A38146138695
:10386000690013854409EFF0EF8CEFE0EFA1EFE082
:103870000FCC2392A900EFE02F8BEFE0EF9A138596
:10388000A1A7EFE0AFDFEFE02F8C1384C1A319C134
:10389000A3852185EFE06FB0C164EFE05FD61387A9
:1038A000F4FF9306000F1306000F81450145EFF06A
:1038B0006FAA0567FD471388F4FF130737EC9306DB
:1038C00060061306000F9305E0020145EFF08FEF4D
:1038D000EFE09FEE8D67938797037EA0EFC0BFC791
:1038E000EFC09FC8F5BFB71702409843B70600F96D
:1038F0009386F6F51367170098C3D8431367070537
:10390000D8C3D843758FD8C3372702401443F19AE0
:1039100014C3144393E6260014C3D8431377F7F077
:10392000D8C3D843D8C38280B7160240DC42918303
:1039300013F7F700B707002093870700BA979C2377
:10394000D4423777DC0293F7F70F130707C093F6DB
:1039500006083356F70099E23356F702B7070020FE
:1039600023A0C708828001A097D1FF1F938181F116
:103970001711002013010169172500001305851F89
:1039800097C5FF1F938505681386018363FAC500F9
:103990008322050023A0550011059105E3EAC5FE29
:1039A0001385018397E5FF1F938545806377B500F5
:1039B000232005001105E36DB5FEFD42739002BCA6
:1039C0008D4273904280930280087390023097C2B8
:1039D000FFFF9382626393E2320073905230EFF004
:1039E0009FF097020000938262DD7390123473009F
:1039F00020305C413707F1E01307F7EF944D7D8FDE
:103A00009C41D58FD44DD58FD441A206D58FD98F67
:103A10005CC11C4537F7F1FF1307D77FD4457D8F75
:103A20009C49D58F94458606D58FD98F1CC55C558A
:103A3000370710FF7D177D8FDC29FD1793F7F70FF0
:103A4000D207D98F5CD582801C4589C593E71700C2
:103A50001CC58280F99BEDBFA54763F7B7048D476E
:103A6000138765FF3307F7020328C5009D47B39707
:103A7000E70093C7F7FFB3F70701B396E600DD8EC3
:103A800054C5994763E3C70495477D163306F6028C
:103A90005859FD47B397C70093C7F7FFF98F33967F
:103AA000C5005D8E50D982800D473387E50203281B
:103AB00005019D47B397E70093C7F7FFB3F70701E9
:103AC000B396E600DD8E14C96DBFB14763E2C7024D
:103AD000954765163306F6021859FD47B397C70098
:103AE00093C7F7FFF98F3396C5005D8E10D982809A
:103AF00095474D163306F6025855FD47B397C70054
:103B000093C7F7FFF98FB395C500DD8D4CD5828043
:103B100008416D8D3335A00082803C4993F707E062
:103B2000DD8D2CC98280B7F7FF1F03A54770828007
:103B30001C4141677917F98F1CC1232005002322FE
:103B4000050023240500B70702402326050013873C
:103B500087006317E500D8431367F700D8C3828056
:103B60001387C7016316E500D8431367070FFDB736
:103B7000138707036318E500D8438566938606F02C
:103B8000558FE9BF138747046315E500D843BD6629
:103B9000C5BF138787056316E500D843B7060F0036
:103BA000C5B71387C7066316E500D843B706F0000C
:103BB000C1BF138707086316E500D843B706000F97
:103BC000C1B713874709E31CE5F8D843B70600F0EF
:103BD00045BF1C4161773D0794517D8F9C45D58F32
:103BE0009449D58FD449D58F944DD58FD44DD58F49
:103BF000D451D58F9455D58FD98F1CC1DC455CC16C
:103C00009C411CC5DC415CC582801C4189C593E791
:103C100017001CC1828041677917F98FDDBFB70794
:103C200002409C437D8D3335A0008280B70702405F
:103C3000C8C382809845937707011378F70081C73E
:103C4000DC413368F8009441814713F6F60F39C21E
:103C50001C410146854E3D4F930F80029302800424
:103C6000214EB398CE00B3F516016391B802131339
:103C70002600B3156F0093C5F5FFED8F3313680071
:103C8000B367F3006317F70D232A15010506E31A3E
:103C9000C6FD1CC14166130606F0758E3DC237167F
:103CA000014093050680631BB50A83A74180A145A7
:103CB000854E3D4F930F800293028004414E339313
:103CC000BE0033F666006312C30213962500011688
:103CD000B318CF0093C8F8FFB3F7F8003316C80045
:103CE000D18F6319F709232A65008505E399C5FD7E
:103CF000371601405CC1930506806312B50823A204
:103D0000F180C16763E6F604504D8147054E3D4F93
:103D1000930F800293028004A14E93850701B3158F
:103D2000BE00B3F8B60063911503939827003313D0
:103D30001F011343F3FF3376C300B318180133E6B2
:103D4000C800631AF7054CC98507E398D7FD50CD25
:103D50008280E31D57F2232815010DBF930506C08D
:103D60006315B50083A7818099B7E312C5F483A7D3
:103D7000C18035BFE31B57F623286500BDB7930507
:103D800006C06315B50023A4F180A5BFE31BC5F6EB
:103D900023A6F180BDB7E31957FAB315FE000CD185
:103DA00065B793970501C1831CC9C1810CD182807D
:103DB00001CA93970501C1831CC9C1810CD18280BE
:103DC0004CC9828023AEA1868280377700401C4395
:103DD00093F7F7F95D8D08C38280B7770040DC4325
:103DE0007D8D3335A0008280EFC28FB4812E854552
:103DF00037050010792813050006EFF01FFD29454F
:103E00009D261145EFF07FFD2A840145EFF0FFFB71
:103E1000333580006FC00FB4B777DC02938707C0DB
:103E20001CC137160240584211839376F7003707BA
:103E300000201307070136971423504293F6F60F1C
:103E40001376060833D7D70019E233D7D70258C103
:103E500018C558C5828099C5371702405C4B5D8DE7
:103E600048CB8280B7170240D84B1345F5FF798DB8
:103E7000C8CB828099C5371702401C4F5D8D08CF93
:103E80008280B7170240984F1345F5FF798D88CF90
:103E9000828099C5371702405C4F5D8D48CF828084
:103EA000B7170240D84F1345F5FF798DC8CF8280F0
:103EB00099C5371702405C475D8D48C78280B717A8
:103EC0000240D8471345F5FF798DC8C7828099C550
:103ED000371702401C4B5D8D08CB8280B71702401C
:103EE000984B1345F5FF798D88CB82801A218D6719
:103EF00093870704B6217D8F9E21D58FD621D58F3C
:103F0000F621D58F9625D58FB625D58FD625D58F79
:103F1000F625D58FD98F1EA19E291EA982801E212C
:103F200089C593E707041EA18280C207C18393F766
:103F3000F7FBC207C183C5BF5E2101C6DD8D4EA15F
:103F4000828093C5F5FFFD8DDDBF4EA582804A2599
:103F500082800A256D8D3335A0008280EFC24F9D8F
:103F6000B7370140938707C0631FF5000564854597
:103F700013050480EFF0DFF3814513050480EFF0B3
:103F80003FF36FC02F9DB7070040631BF5008545C9
:103F90000545EFF0DFF381450545EFF05FF3D5B759
:103FA00093870740E31FF5FC85450945EFF03FF295
:103FB00081450945DDB71E2137370140130707C08A
:103FC000C207C1836306E500370700406316E500BA
:103FD000BA2193F7F7F8D98FFA2193F7F7CFC207F1
:103FE000C183D98F1EA1DE215EB59E211EB5B737D4
:103FF0000140938707C06306F500B70700406314CC
:10400000F5009C251EB985475EA982801E2189C5C1
:1040100093E717001EA18280C207C183F99BC207E4
:10402000C183CDBF5E2501C6DD8D4EA5828093C5BF
:10403000F5FFFD8DDDBF93C5F5FFC205C1810EA95A
:1040400082801E294A25ED8F4205418189C76D8DE9
:104050003335A00082800145828093C5F5FFC205FB
:10406000C1810EA98280EFC2AF8C1629F577FD17AA
:10407000F58FF621DA250111D58F1EA95625FD777A
:104080009387379FF58FD6212A842EC6D58F962504
:10409000D58FB625D58F5EA55E29C207C18393F75C
:1040A000F7CFD98F5EA90808EFF01FD7B7470140B7
:1040B00093870780B245631EF402F2476547B387D2
:1040C000E7029841930640060A07B3D7E70233D7C1
:1040D000D702B3F7D7021207920793872703B3D704
:1040E000D702BD8BD98FC207C1831EA405616FC0E3
:1040F0006F86E247E1B791C55E250967D98F5EA556
:1041000082805A25F977FD17F98FD5BF5E2901C640
:10411000DD8D4EA9828093C5F5FFFD8DDDBF93F542
:10412000F51F4EA182800A216D8D3335A00082805B
:1041300093C5F5FFC205C1810EA18280B70700209B
:1041400083A7070837177A0013070720B3D7E702BA
:1041500093F7F70F2381F1881307803EB387E702B7
:104160002390F1888280B7F700E0D8438146799B9D
:10417000D8C303C721883306A70290CBD4CB98437A
:104180001367070198C398431367170298C3D8436E
:10419000058B75DF9843799B98C38280EFB25FF9F6
:1041A00001112A84854537050200EFF09FCE854531
:1041B0001145EFF03FCC91473EC23715014085478E
:1041C0003EC44C00E147130505803EC6EFF09FA6B4
:1041D00022C837440040B70708000C081305044004
:1041E0003ECC02CA231E0100EFF0FFE78545130510
:1041F0000440EFF05FF005616FB0DFF5EFB2BFF1A3
:10420000B7440040AE893289014493840440634539
:1042100024014A856FB07FF3930500042685EFF0F3
:104220009FF07DD9B3878900838507002685050423
:10423000C205C181EFF0BFEED9BF138701811C43D6
:10424000B71600209386861A3E95636BD500B75645
:1042500000209386068063E5A60008C33E85828021
:10426000FD57EDBFB3C7A5008D8B3307C50081E7B0
:104270008D4763EDC700AA87637EE5089421850713
:104280008505A38FD7FEE3EBE7FE828093763500AA
:10429000AA8789CA942185078505A38FD7FE93F63F
:1042A0003700C5BF9376C7FF138606FE63F0C706C7
:1042B00083A3050083A2450083AF850003AFC5003B
:1042C00083AE050103AE450103A3850183A8C501A3
:1042D0009385450223A0770003A8C5FF23A25700BA
:1042E00023A4F70123A6E70123A8D70123AAC70126
:1042F00023AC670023AE17019387470223AE07FF65
:1043000075B790419107910523AEC7FEE3EBD7FE49
:10431000E3E6E7F6828039713EDA2ED232D436D621
:104320003AD842DC46DE9387418122CC804326CABC
:1043300006CEAA8409C41C4C99E32285F9200C44BA
:1043400054102686228536C6952EF2406244D24409
:1043500021618280411122C406C62A844EA572A51D
:10436000232005002322050023240500232205061F
:1043700023280500232A0500232C0500214681451A
:104380001305C505EFB0DFDD971700009387079A87
:104390005CD0971700009387279C1CD497170000C8
:1043A000938707A05CD497170000938767A200D07B
:1043B0001CD8B240224441018280971500009385A9
:1043C000A5D691AA411126C2130680069384F5FF53
:1043D000B384C4024AC02E8922C406C6938544070A
:1043E00045222A8401CD2320050023222501310501
:1043F00008C4138684068145EFB09FD62285B2405B
:10440000224492440249410182801C4DA5E741119A
:1044100006C622C497070000938767FA1CD59387C6
:10442000C1829C4323240504232605042328050474
:104430006314F50085471CCD2A84352848C02285A1
:104440001D2808C42285052848C4484001469145D6
:10445000EFF05FF008440546A545EFF0BFEF484494
:104460000946C945EFF01FEF85471CCCB2402244F6
:1044700041018280828041119387C18226C2844398
:104480004AC006C69C4C22C42A8981E72685EFF0E3
:10449000DFF7938484048044DC40FD1763D6070073
:1044A0009C40B9CF8440C5BF0317C40039E7C1772A
:1044B000850723220406232004002322040023244A
:1044C00004005CC423280400232A0400232C0400D5
:1044D000214681451305C405EFB09FC8232A040275
:1044E000232C040223240404232604042285B2403E
:1044F000224492440249410182801304840671BF20
:1045000091454A85EFF01FEC88C049FDB147232053
:10451000F9000144E1BF797122D44AD052CC56CA85
:104520005AC85EC606D626D24ECE2A8AAE8A130452
:1045300085040149054BFD5B09ECB25022544A85C4
:1045400092540259F249624AD24A424BB24B4561F7
:104550008280044483294400FD1963D4090000408B
:10456000E1BFDE24637BFB008397E4006387770170
:10457000A6855285829A3369A90093848406E9BF8F
:10458000011126CA93843500F19806CE22CC4AC880
:104590004EC6A104B14763F3F404B14463E2B4042A
:1045A0002A89EF00F0519387418898433A8439E093
:1045B000938781889C4391E781454A852D2F23A4C9
:1045C000A188A6854A85052FFD5963193507B1478E
:1045D0002320F9004A85EF00D04E29A0E3D004FC47
:1045E000B1471CC10145F2406244D2444249B2493C
:1045F000056182801C40858F63CF0702AD4663F65C
:10460000F6001CC03E9404C031A05C4063138702D6
:1046100023A2F1884A85EF00D04A1305B40093071E
:10462000440061993307F5405DDF3A94898F1CC0DF
:104630005DBF5CC3C5B72287404095BF13043500FA
:104640007198E30285FCB305A4404A856D25E31CFF
:1046500035FBB5BF1C46FD171CC663D90700184EB5
:1046600063C5E700A9476393F500A5A71C422E8503
:104670001387170018C28CA38280011122CC26CA8E
:104680004AC84EC652C406CE2A89AE893284B304C3
:10469000D6007D5A63149400014509A80C204E866B
:1046A0004A85EFF03FFB0504E31645FFF240624404
:1046B000D2444249B249224A05618280357122CDF5
:1046C00026CB4AC94EC706CF52C556C35AC1DEDEF5
:1046D000E2DCE6DAAA89AE843289368409C51C4D4B
:1046E00099E3EFF09FD2971700009387E740639913
:1046F000F40C83A44900DE24A18BEDC79C48FDC3C4
:1047000093070002A304F1029307000302D22305DA
:10471000F10222C6930B5002971A0000938ACA41F5
:10472000054C294B4A841C2099C3639F770DB30C19
:104730002441638E0C00E6864A86A6854E85EFF0FE
:10474000DFF3FD576301F51E9256E69636D21C2024
:10475000638B071CFD571309140002C802CE3ECA22
:1047600002CCA309010482D483450900154656856D
:10477000EF00903313041900C24749E913F707010A
:1047800009C713070002A309E10413F7870009C74B
:104790001307B002A309E104834609001307A0022E
:1047A000638EE606F2474A84814625461820930523
:1047B0001400130707FD6376E60AADCA3ECEBDA01E
:1047C00097170000938747356395F40083A4890009
:1047D0001DB79717000093872730E39EF4F083A45A
:1047E000C90011BFA6854E85F92D19D97D55FA400E
:1047F0006A44DA444A49BA492A4A9A4A0A4BF65B59
:10480000665CD65C0D618280050431BF330555417D
:104810003315AC00C98F3EC82289B9B73247930619
:104820004700184336C6634707023ACE182093075D
:10483000E002631DF70418309307A002631BF70220
:10484000B2470904138747009C433AC663C1070275
:104850003ECA2DA83307E04093E727003ACE3EC872
:10486000F1B7B387670385462E84BA9781B7FD57A2
:10487000C5B7050402CA814681472546182093051D
:104880001400130707FD6376E606F9F20C200D46C7
:10489000171500001305C52AEF00102111CD971739
:1048A00000009387E7291D8D93070004B397A700A5
:1048B000424505045D8D2AC80C20194617150000D5
:1048C00013054528130914002304B102EF00D01D7D
:1048D00035C197B7FFFF9387E77295E74247B24725
:1048E0001377071009CF91073EC69257D2973ED251
:1048F00015BDB387670385462E84BA9741B79D07D8
:10490000E19BA107D5B7780097060000938626D7CC
:1049100026860C084E8597000000E7000000FD5732
:104920002A8AE314F5FCDE2493F70704E39007ECEE
:10493000125575BD780097060000938646D42686EA
:104940000C084E85012AE1BF797156CA9C49BA8A82
:10495000984522D426D24ECE52CC06D64AD05AC83A
:104960005EC6AA892E84B284368A63D3E700BA87EA
:104970009CC00347340419C385079CC01C4093F7AF
:10498000070281C79C4089079CC003290400137952
:104990006900631A0900130B9401FD5B5C449840A5
:1049A000998F634CF9041C408346340493F7070243
:1049B000B336D000A5EB13063404D2854E85829A17
:1049C000FD576303F5041C4011469840998B5444ED
:1049D00081446397C700B384E64063D304008144F5
:1049E0001C4418486354F700998FBE940149690428
:1049F0007D5B63982405014509A885465A86D285C2
:104A00004E85829A631E75017D55B2502254925490
:104A10000259F249624AD24A424BB24B4561828006
:104A20000509ADBF3307D40013060003A301C70473
:104A30000347540493871600A2978906A381E704CD
:104A40009DBF85462286D2854E85829AE30E65FB00
:104A5000050945B7797122D426D24AD04ECE06D662
:104A600052CC56CA5AC8B689942D930790063289FB
:104A7000AA842E8413863504638DF60263E2D7067A
:104A8000930780056386F61863EDD700638E0620D2
:104A900093073004638EF60A930A24042301D40496
:104AA000C9A0930730066385F60A93074006E3958D
:104AB000F6FE1C40084393F6070893054500C5C65B
:104AC0001C410CC363D807001307D002B307F040A2
:104AD000A301E4049716000093864607294765A8BA
:104AE000930700076382F61663E5D7029307E00693
:104AF0006389F6189307F006E390F6FA0C401C431E
:104B000013F80508138547006307080608C39C438C
:104B100085A893075007E383F6FE93078007638910
:104B2000F61293073007E399F6F61C43D04181450E
:104B30009386470014C383AA07005685B52701C58D
:104B40003305554148C05C401CC8A301040461A85A
:104B50001C43930A2404938647009C4314C32301F7
:104B6000F4048547D5B793F607041C410CC3B9DAA2
:104B7000C207C18781BF93F5050408C3C9D99E2325
:104B80001307F0066387E60E97160000938606FC6F
:104B90002947A30104044C400CC463C50500084028
:104BA0006D9908C099E3B28A89CDB28AB3F5E7025C
:104BB000FD1AB6958C212380BA00B3D5E70263F0C5
:104BC000E70CA147631EF7001C40858B91CB584032
:104BD0001C4863C7E70093070003A38FFAFEFD1A82
:104BE0003306564110C84E87CA867000A2852685B6
:104BF000EFF09FD57D5A631D450B7D55B250225471
:104C000092540259F249624AD24A424B456182802B
:104C1000A382D50497160000938646F30C40084300
:104C200013F805081C411105630D080208C313F7AA
:104C3000150001C793E505020CC04147B9FB0C40C4
:104C400093F5F5FD0CC0B1B79C4193E707029CC1F9
:104C500093078007A302F40497160000938646F09A
:104C600075BF13F8050408C3E30308FCC207C1833A
:104C70007DBF97160000938666ED214719BFAE876A
:104C800035B794411C43CC4913F8060813854700F7
:104C90006306080008C39C438CC339A008C393F67D
:104CA00006049C43F5DA8EA323280400B28A25BFAC
:104CB00014485686CA8526858299E30045F51C402E
:104CC000898B8DE7B2474844E35AF5F23E853DB7FC
:104CD00085465686CA8526858299E30065F3050ACE
:104CE0005C443247998FE345FAFEE9BF014A930AD3
:104CF00094017D5BF5B7411122C42A842E8597C7A4
:104D0000FF1F23A3074A06C6EFF02FD3FD576319F1
:104D1000F50097C7FF1F938727499C4391C31CC089
:104D2000B240224441018280411122C42E848395E5
:104D3000E50006C6252D634905007C48AA977CC876
:104D4000B2402244410182805E247D777D17F98F35
:104D50005EA4FDB7DE25011122CC26CA4AC84EC684
:104D600006CE93F70710AA842E843289B68991C79C
:104D70008395E5008946014611295E247D777D17DC
:104D8000F98F5EA48315E4006244F240CE864A8621
:104D9000B24942492685D2440561DDA8411122C4A9
:104DA0002E848395E50006C6D526FD575A24631A3E
:104DB000F500FD77FD17F98F5EA4B2402244410152
:104DC00082808567D98F5EA468C8C5BF8395E500DA
:104DD000D5AA011122CC26CA4AC806CE4EC6AA843C
:104DE0002E89328409C51C4D99E3EFF00FE2971725
:104DF0000000938767D06317F406C0401C4C1CC4A6
:104E00005E24A18BC1C31C48B5CF1C4808409379D0
:104E1000F90F1379F90F1D8D5C486346F500A285E3
:104E20002685092625E51C440505FD171CC41C40E4
:104E30001387170018C0238037015C486388A700D8
:104E40005E24858B81CBA9476316F900A285268550
:104E5000D12C0DEDF24062444A85D2444249B24918
:104E60000561828097170000938707CB6314F400D5
:104E7000804469B797170000938707C6E310F4F8DA
:104E8000C044ADBFA28526853D2841D17D59D9B703
:104E9000411122C42A842E85B285368697C7FF1F0A
:104EA00023A4073006C6EFF06FB5FD576319F50070
:104EB00097C7FF1F9387472F9C4391C31CC0B240E5
:104EC00022444101828041119387418126C284435B
:104ED00022C44AC006C62A892E8491C49C4C81E70C
:104EE0002685EFF08FD2971700009387E7C0631BEA
:104EF000F402C0400317C40093170701C18393F65F
:104F00008700ADEA93F6070195EEA5472320F90047
:104F1000136707045AA47D55B240224492440249C3
:104F20004101828097170000938707BF6314F40044
:104F30008044C9B797170000938707BAE31CF4FAB7
:104F4000C0444DBF918B9DC34C5889C993074404FD
:104F50006384F5004A85BD26232A04025E242322A9
:104F6000040093F7B7FD5EA41C481CC05E2493E7C1
:104F700087005EA41C4899EB5E241307002093F77A
:104F800007286385E700A2854A8571245E2413F70C
:104F900017001DC35C4823240400B307F0401CCC59
:104FA0001C480145B5FB8317C40013F707082DD72C
:104FB00093E707045EA485B7898B014791E35848BE
:104FC00018C4F9BF411122C42A842E8597C7FF1F38
:104FD00023AC071C06C63521FD576319F50097C79A
:104FE000FF1F9387671C9C4391C31CC0B24022449F
:104FF00041018280DE25011122CC26CA06CE4AC894
:105000004EC613F78700AA842E8479EBD841634DEE
:10501000E000B841634AE0000145F2406244D244F6
:105020004249B2490561828058547DD703A90400E2
:105030009396370123A0040063DB060670485E24C4
:10504000918B99C75C401D8E5C5899C33C401D8E66
:105050005C540C50814626858297FD575A24631D67
:10506000F5009440F54763E8D706B7074020850769
:10507000B3D7D700858BA5C31C48232204001CC0CE
:105080009317370163D80700FD576314F5009C4060
:1050900091E368C84C5823A02401BDDD9307440464
:1050A0006384F5002685392C232A0402B5B70C50F9
:1050B0000146854626850297FD572A86E311F5F8B5
:1050C0009C40B5DF75476385E70059476393E70464
:1050D00023A0240191B7136707045AA47D5535BF57
:1050E00083A90501E38A09F203A905008D8B23A09A
:1050F000350133093941014791E3D84918C4E35DCB
:1051000020F11C540C50CA864E8626858297634730
:10511000A0005E2493E707045EA4C9B7AA993309E7
:10512000A940F1BF9C49ADC3011122CC06CE2A840F
:1051300019C51C4D89E72EC6EFF02FADB245971764
:1051400000009387679B639CF5004C408397C500E4
:105150009DC722856244F24005616FF0BFE9971751
:1051600000009387679B6394F5000C44C5B79717BD
:10517000000093876796E39BF5FC4C44C1BFF24067
:10518000624401450561828001458280411122C44B
:105190002A842E85B285368697C7FF1F23A607006F
:1051A00006C6412CFD576319F50097C7FF1F93876B
:1051B000A7FF9C4391C31CC0B2402244410182809E
:1051C0001971A6DAAE848395E500A2DC86DE32840E
:1051D00063DB0500DE2423A0060093F707089DE3A8
:1051E0009307004015A0300836C65D2AB246E34357
:1051F00005FE7247BD67F98F7977BA9793B71700A5
:105200009CC2F9BF930700041CC0F6506654D654E4
:10521000014509618280DE25011122CC06CE26CA15
:105220004AC8898B2E8489CF930774041CC01CC87C
:1052300085475CC8F2406244D2444249056182809D
:1052400074003000AA84EFF0BFF7A2452A892685B2
:10525000EFF00FB319E98317C40013F7072079FBA8
:10526000F19B93E727005EA4C1B797F7FFFF9387F1
:1052700007159CD45E2408C008C893E707085EA4FD
:10528000A2475CC8B24799CB8315E40026859122DA
:1052900011C55E24F19B93E717005EA45E24336979
:1052A000F9002316240179B793F5F50F2A966314B4
:1052B000C500014582801C21E38EB7FE0505C5BFF0
:1052C00082808280DDC183A7C5FF411122C406C64A
:1052D00026C21384C5FF63D307003E94AA84EFF06F
:1052E0003FFE938741889C4381EF2322040023A241
:1052F00081882244B2402685924441016FF07FFCB0
:10530000637EF40014403307D4006396E7009843AB
:10531000DC43369718C05CC0D9BFBA87D84319C3DD
:10532000E37DE4FE94433386D700631F860010407C
:10533000B29694C33386D700E31DC7FA104358438F
:10534000B29694C3D8C375B76375C400B1479CC007
:105350004DB71040B306C4006316D700144358433A
:10536000B29614C058C0C0C369B78280411122C42C
:105370002A842E85B285368697C7FF1F23A607E2AB
:1053800006C6C120FD576319F50097C7FF1F938715
:10539000A7E19C4391C31CC0B240224441018280DA
:1053A000411122C42A842E85B28597C7FF1F23ADE1
:1053B00007DE06C6B928FD576319F50097C7FF1F1A
:1053C000938787DE9C4391C31CC0B24022444101B5
:1053D0008280411122C42A842E8597C7FF1F23A5EE
:1053E00007DC06C63D28FD576319F50097C7FF1F68
:1053F000938787DB9C4391C31CC0B2402244410188
:1054000082809307800517C7FF1F232FF7D87D558C
:1054100082809307800517C7FF1F2327F7D87D5584
:1054200082809307800517C7FF1F232FF7D60145FA
:1054300082809307800517C7FF1F2327F7D67D5566
:1054400082809307800517C7FF1F232FF7D47D5550
:1054500082800000540300006E03000088030000F7
:10546000A2030000D0040000B8030000D60300002F
:10547000FC030000200400003A0400006404000063
:1054800088040000A2040000B8040000CA04000060
:10549000466C6173685F496E666F002000210002F0
:1054A0004D534E5F5549440020001E0000004D53EF
:1054B0004E5F5374617475730020000100001F007B
:1054C00000000000000000000000000000000000DC
:1054D00000000000000000000000000000000000CC
:1054E00000000000000000000000000000000000BC
:1054F00000000000000000000000000000000000AC
:10550000000000000000000000000000000000009B
:10551000000000000000000000000000000000008B
:10552000000000000000000000000000000000007B
:10553000000000000000000000000000000000006B
:10554000000000000000000000000000000000005B
:10555000000000000000000000000000000000004B
:10556000000000000000000000000000000000003B
:10557000000000000000000000000000000000002B
:10558000000000000000000000000000000000001B
:1055900002180000CC160000261700005817000063
:1055A000261700005A1600005215000026170000AA
:1055B000A4160000BA160000FC17000064160000D4
:1055C0007FC4DEC6F6C67F00FF44D5C4D4D5FF0035
:1055D000FC466E6EEE6EFC007FF1F7F1FDF17F0090
:1055E000FF11B5B5B5B1FF00FC1E5E1E7E7EFC004E
:1055F0007FC5EDEDEDED7F00FF7425547574FF0060
:10560000FC46D646CE56FC007FF1F5F5F5F17F005D
:10561000FC6E2E4E6E6EFC007FC4D5D4D5C57F00C7
:10562000FC46DE46DEDEFC000000000000E0E0E0BC
:10563000183C3CFF7E180000081C22223649221C20
:105640004EB1501010110E00FF42422424181800D1
:10565000FF7E7E3C3C18180000181824244242FFAC
:105660000018183C3C7E7EFF010204081020408098
:105670008040201008040201427E5A18BDFF8100BC
:10568000223F421E123F0202182442BD1424481831
:105690007222F62777A32224007F49497F414300E5
:1056A0000008047E040800000010207E2010000086
:1056B0001038541010101000101010105438100032
:1056C000000000000000000010101010100010007A
:1056D0002828280000000000247E2424247E2400A2
:1056E0007E7E7E7E7E7E7E0022542408121522005D
:1056F000205050304A443A000808100000000000D2
:105700000810202020100800201008080810200091
:10571000082A1C081C2A08000008083E0808000087
:105720000000000008081000000000003C0000001D
:1057300000000000000010000102040810204000DA
:105740003E22222222223E00020202020202020025
:105750003E02023E20203E003E02023E02023E0089
:105760002222223E020202003E20203E02023E0091
:105770003E20203E22223E003E020202020202029F
:105780003E22223E22223E003E22223E02023E00D5
:1057900000001000001000000000100000102000A9
:1057A000040810201008040000007C00007C0000A9
:1057B00020100804081020001C2202040800080021
:1057C0001C225D534F221C001C2241417F4141009D
:1057D0007E41417E41417E003E41404040413E008D
:1057E0007E41414141417E007F40407E40407F00FC
:1057F0007F40407C404040003E41404F41413E00A0
:105800004141417F414141001C08080808081C0033
:105810001C080808084830004448506050484400BC
:105820004040404040407F00416355494141410074
:1058300041615149454341003E41414141413E00A2
:105840007E41417E404040003E41414145423D0055
:105850007E41417E444241003E41403E01413E0086
:105860007F080808080808004141414141413E00C5
:1058700041414141221408004141414955634100E1
:10588000412214081422410041221408080808008B
:105890007F02040810207F003820202020203800BC
:1058A0004428107C107C10003808080808083800CC
:1058B00010284400000000000000000000007F00ED
:1058C0000000000000000000000038043C443A00E2
:1058D00000202038242438000000003840403800E0
:1058E0000404041C24241C00000038447C403800BC
:1058F0000008103810101000000018241C04380094
:105900000020203824242400100010101010100053
:105910000800080808083000002024283028240047
:10592000101010101010380000000078545454006B
:1059300000000038242424000000003048483000D3
:105940000038242438202000001C24241C040400D7
:10595000000028302020200000001820100830000F
:105960000000103810101800000000242424180033
:1059700000000022221408000000004444542800C3
:1059800000004428102844000024241C04041800AB
:105990000000003C08103C001810102010101800E7
:1059A0001010101010101000180808040808180033
:1059B0004D534E2000000000646576696365200049
:1059C000697320006E6F200061637469766174658D
:1059D000642E000053797374656D436C6B3A2564D3
:1059E0000D0A00004368697049443A253038780D43
:1059F0000A00000009026B000301008032080B005E
:105A00000202020100090400000102020100052453
:105A100000100105240100010424020205240600EF
:105A2000010705810340000109040100020A00008A
:105A3000000705020240000007058302400000093C
:105A400004020002030000000921000100012222DB
:105A5000000705840340000107050403400001001E
:105A60001201100100000040861A0CFE0100010224
:105A7000030100000600FF0901A101090226FF0041
:105A800075081500954081060902150026FF00756E
:105A90000895409106C000000E037700630068007F
:105AA0002E0063006E000000120343004800330024
:105AB000320078003000330035000000160330005B
:105AC0003100320033003400350036003700380032
:105AD000390000000000000000000000000000008D
